{
  "contractName": "MutantCatsAdsPlatform",
  "abi": [
    {
      "inputs": [
        {
          "internalType": "address",
          "name": "_sinkAddress",
          "type": "address"
        },
        {
          "internalType": "address",
          "name": "_fishAddress",
          "type": "address"
        }
      ],
      "stateMutability": "nonpayable",
      "type": "constructor"
    },
    {
      "anonymous": false,
      "inputs": [
        {
          "indexed": false,
          "internalType": "address",
          "name": "payer",
          "type": "address"
        },
        {
          "indexed": false,
          "internalType": "uint256",
          "name": "amount",
          "type": "uint256"
        },
        {
          "indexed": false,
          "internalType": "uint256",
          "name": "paymentId",
          "type": "uint256"
        },
        {
          "indexed": false,
          "internalType": "uint256",
          "name": "date",
          "type": "uint256"
        }
      ],
      "name": "PaymentDone",
      "type": "event"
    },
    {
      "inputs": [],
      "name": "balance",
      "outputs": [
        {
          "internalType": "uint256",
          "name": "",
          "type": "uint256"
        }
      ],
      "stateMutability": "view",
      "type": "function"
    },
    {
      "inputs": [],
      "name": "fish",
      "outputs": [
        {
          "internalType": "contract IERC20",
          "name": "",
          "type": "address"
        }
      ],
      "stateMutability": "view",
      "type": "function"
    },
    {
      "inputs": [],
      "name": "owner",
      "outputs": [
        {
          "internalType": "address",
          "name": "",
          "type": "address"
        }
      ],
      "stateMutability": "view",
      "type": "function"
    },
    {
      "inputs": [],
      "name": "sinkAddress",
      "outputs": [
        {
          "internalType": "address",
          "name": "",
          "type": "address"
        }
      ],
      "stateMutability": "view",
      "type": "function"
    },
    {
      "inputs": [
        {
          "internalType": "uint256",
          "name": "amount",
          "type": "uint256"
        },
        {
          "internalType": "uint256",
          "name": "paymentId",
          "type": "uint256"
        }
      ],
      "name": "pay",
      "outputs": [],
      "stateMutability": "nonpayable",
      "type": "function"
    }
  ],
  "bytecode": "0x608060405234801561001057600080fd5b506040516106ab3803806106ab8339818101604052810190610032919061015e565b336000806101000a81548173ffffffffffffffffffffffffffffffffffffffff021916908373ffffffffffffffffffffffffffffffffffffffff16021790555081600260006101000a81548173ffffffffffffffffffffffffffffffffffffffff021916908373ffffffffffffffffffffffffffffffffffffffff16021790555080600360006101000a81548173ffffffffffffffffffffffffffffffffffffffff021916908373ffffffffffffffffffffffffffffffffffffffff160217905550505061019e565b600080fd5b600073ffffffffffffffffffffffffffffffffffffffff82169050919050565b600061012b82610100565b9050919050565b61013b81610120565b811461014657600080fd5b50565b60008151905061015881610132565b92915050565b60008060408385031215610175576101746100fb565b5b600061018385828601610149565b925050602061019485828601610149565b9150509250929050565b6104fe806101ad6000396000f3fe608060405234801561001057600080fd5b50600436106100575760003560e01c806384dde4af1461005c5780638da5cb5b1461007a578063b69ef8a814610098578063d14775d9146100b6578063ef48eee6146100d4575b600080fd5b6100646100f0565b60405161007191906102ad565b60405180910390f35b610082610116565b60405161008f91906102ad565b60405180910390f35b6100a061013a565b6040516100ad91906102e1565b60405180910390f35b6100be610140565b6040516100cb919061035b565b60405180910390f35b6100ee60048036038101906100e991906103a7565b610166565b005b600260009054906101000a900473ffffffffffffffffffffffffffffffffffffffff1681565b60008054906101000a900473ffffffffffffffffffffffffffffffffffffffff1681565b60015481565b600360009054906101000a900473ffffffffffffffffffffffffffffffffffffffff1681565b600360009054906101000a900473ffffffffffffffffffffffffffffffffffffffff1673ffffffffffffffffffffffffffffffffffffffff166323b872dd33600260009054906101000a900473ffffffffffffffffffffffffffffffffffffffff16856040518463ffffffff1660e01b81526004016101e7939291906103e7565b6020604051808303816000875af1158015610206573d6000803e3d6000fd5b505050506040513d601f19601f8201168201806040525081019061022a9190610456565b507f78eaebe37a28490ff43ed0e95bdc47de1587156ac0069b652e1d2d9f42464e98338383426040516102609493929190610483565b60405180910390a15050565b600073ffffffffffffffffffffffffffffffffffffffff82169050919050565b60006102978261026c565b9050919050565b6102a78161028c565b82525050565b60006020820190506102c2600083018461029e565b92915050565b6000819050919050565b6102db816102c8565b82525050565b60006020820190506102f660008301846102d2565b92915050565b6000819050919050565b600061032161031c6103178461026c565b6102fc565b61026c565b9050919050565b600061033382610306565b9050919050565b600061034582610328565b9050919050565b6103558161033a565b82525050565b6000602082019050610370600083018461034c565b92915050565b600080fd5b610384816102c8565b811461038f57600080fd5b50565b6000813590506103a18161037b565b92915050565b600080604083850312156103be576103bd610376565b5b60006103cc85828601610392565b92505060206103dd85828601610392565b9150509250929050565b60006060820190506103fc600083018661029e565b610409602083018561029e565b61041660408301846102d2565b949350505050565b60008115159050919050565b6104338161041e565b811461043e57600080fd5b50565b6000815190506104508161042a565b92915050565b60006020828403121561046c5761046b610376565b5b600061047a84828501610441565b91505092915050565b6000608082019050610498600083018761029e565b6104a560208301866102d2565b6104b260408301856102d2565b6104bf60608301846102d2565b9594505050505056fea26469706673582212204a4b348fcc6d33cb4f8c9e53d81e46ad61dcc68900abe5f1a5f771a78f6115b164736f6c634300080a0033",
  "immutableReferences": {},
  "source": "// SPDX-License-Identifier: MIT\npragma solidity ^0.8.0;\n\nimport \"@openzeppelin/contracts/token/ERC20/IERC20.sol\";\n\ncontract MutantCatsAdsPlatform {\n    // Contract Creator\n    address public owner;\n    uint256 public balance;\n    address public sinkAddress;\n    IERC20 public fish;\n\n    event PaymentDone(\n        address payer,\n        uint amount,\n        uint paymentId,\n        uint date\n    );\n\n    constructor(address _sinkAddress, address _fishAddress) {\n        owner = msg.sender;\n        sinkAddress = _sinkAddress;\n        fish = IERC20(_fishAddress);\n    }\n\n    function pay(uint amount, uint paymentId) external {\n        fish.transferFrom(msg.sender, sinkAddress, amount);\n        emit PaymentDone(msg.sender, amount, paymentId, block.timestamp);\n    }\n}\n\n\n\n    // receive() payable external {\n    //     balance += msg.value;\n    //     emit TransferReceived(msg.sender, msg.value);\n    // }    \n\n    // function withdraw(uint amount, address payable destAddr) public {\n    //     require(msg.sender == owner, \"Only owner can withdraw funds\"); \n    //     require(amount <= balance, \"Insufficient funds\");\n        \n    //     destAddr.transfer(amount);\n    //     balance -= amount;\n    //     emit TransferSent(msg.sender, destAddr, amount);\n    // }\n\n    // function transferERC20(IERC20 token, address to, uint256 amount) public {\n    //     require(msg.sender == owner, \"Only owner can withdraw funds\");\n    //     uint256 erc20balance = token.balanceOf(address(this));\n    //     require(amount <= erc20balance, \"Balance is low\");\n\n    //     emit TransferSent(msg.sender, to , amount);\n    // }",
  "sourcePath": "/Users/farrisismati/Code/nft/mutantcats/mc_ads/contracts/MutantCatsAdsPlatform.sol",
  "compiler": {
    "name": "solc",
    "version": "0.8.10+commit.fc410830.Emscripten.clang"
  },
  "schemaVersion": "3.3.4",
  "updatedAt": "2021-11-11T12:37:09.574Z",
  "networkType": "ethereum",
  "devdoc": {
    "kind": "dev",
    "methods": {},
    "version": 1
  },
  "userdoc": {
    "kind": "user",
    "methods": {},
    "version": 1
  }
}